:1000000012C021C020C01FC01EC01DC01CC01BC00C
:100010001AC019C018C017C016C015C014C013C02C
:1000200012C0E8C010C011241FBECFE5D4E0DEBF6F
:10003000CDBF20E0A0E6B0E001C01D92A637B20718
:10004000E1F71DD18FC1DCCF0000C59A0000C59833
:100050000895C19A0000C19800000895CF92DF92E0
:10006000EF92FF920F931F93CF93DF937C0126E0D3
:10007000E20EF11C6C01F70102917F01C7E0D0E0B4
:1000800010E098010C2E02C0359527950A94E2F7EE
:1000900020FF02C0C39A01C0C398D6DF219788F71A
:1000A000CE14DF0441F7DF91CF911F910F91FF90A4
:1000B000EF90DF90CF900895CF93C82FC39AC4DFFD
:1000C000C13019F0C23029F007C084E690E0C6DFE5
:1000D00003C08AE690E0C2DFCF910895CF93C82F86
:1000E000C398B2DFC13019F0C23029F007C084E6EE
:1000F00090E0B4DF03C08AE690E0B0DFCF910895CE
:10010000E4E6F0E0108211821282138214821582DA
:10011000EAE6F0E0108211821282138214821582C4
:10012000089582E0DBDF81E0D9DF93DF08950F934C
:100130001F93CF93DF93F89487B38E6287BBC598E4
:1001400088B38E6088BB81E090E0F7D08F3F21F4C8
:100150006EEB81E090E0F9D081E090E0EED082B9E2
:1001600086B7806886BF86B7816086BF86B78064A1
:1001700086BF86B7846086BF82E080B9089813B8CE
:100180009FE088E10FB6F894A89581BD0FBE91BDA0
:1001900078945FDF04E610E08FEFF80180838183BD
:1001A00082831382148296E99583CAE6D0E088831D
:1001B00089838A831B821C829D8381E07DDF82E0AC
:1001C0007BDF47DFF80111821282138214821582CD
:1001D000168219821A821B821C821D821E8281E075
:1001E0007DDF82E07BDF35DFC298DF91CF911F9109
:1001F0000F9108951F920F920FB60F9211248F93B3
:100200009F93EF93FF9381B1887F803A21F1883AE1
:1002100011F1803841F583B18A3A41F48091600050
:10022000811108C081E0809360001DC08091600052
:100230008823C9F093B1E82FF0E0E159FF4F908394
:100240008F5F80936000883071F41092600081E0CD
:100250008093630008C080916100882311F013B877
:1002600002C08FEF83B986B7806886BFFF91EF9198
:100270009F918F910F900FBE0F901F90189557DF91
:100280003FDF04E610E00F2EF4E1DF2EF02DCAE68A
:10029000D0E00F2EFCE0EF2EF02D0F2EF8E1FF2E18
:1002A000F02DF80110821182128213821482D582FD
:1002B000188219821A821B821C821D8232DFFFEF94
:1002C00029E688E1F15020408040E1F700C00000BD
:1002D00017DFA895F801108211821282138214820E
:1002E000E582188219821A821B821C821D8219DF04
:1002F000FFEF29E688E1F15020408040E1F700C09F
:100300000000FEDEA895F80110821182128213828D
:100310001482F582188219821A821B821C821D8225
:1003200000DFFFEF29E688E1F15020408040E1F74F
:1003300000C00000E5DEA895B4CFE199FECF9FBBD9
:100340008EBBE09A99278DB30895262FE199FECFB1
:100350009FBB8EBB2DBB0FB6F894E29AE19A0FBEFD
:0803600001960895F894FFCF07
:00000001FF
