S01900004F64696E4579655F6677202D20696E20432E737265637B
S113000094C0A3C0A2C0A1C0A0C09FC09EC09DC0F8
S11300109CC09BC09AC099C098C097C096C095C018
S113002094C073C192C0C0C1D0C1E0C12FC22EC25E
S11300302DC22CC22BC22AC229C228C227C226C260
S113004025C224C223C222C221C220C21FC21EC290
S11300501DC21CC21BC21AC219C218C217C216C2C0
S113006015C214C2D4C112C2F2C110C20FC20EC250
S11300700DC20CC20BC20AC209C208C207C206C220
S113008005C204C2D4C102C2F2C110C220C230C22D
S113009040C250C260C270C280C290C2A0C2B0C28C
S11300A0C0C2D0C2E0C2F0C200C310C320C330C378
S11300B040C350C360C370C380C390C3A0C3B0C364
S11300C0C0C3D0C3E0C3F0C300C410C420C430C450
S11300D040C450C460C470C480C490C4A0C4B0C43C
S11300E0C0C4D0C4E0C4F0C400C510C520C530C528
S11300F040C550C560C570C580C590C5A0C5B0C514
S1130100C0C5D0C5E0C5F0C500C610C620C630C6FF
S113011040C650C660C670C680C690C6A0C6B0C6EB
S1130120C0C6D0C6E0C6F0C600C711241FBECFE5C6
S1130130D4E0DEBFCDBF20E0A0E6B0E001C01D9258
S1130140A637B207E1F7E2D7A8C85ACF0000C59A8C
S11301500000C5980895C19A0000C1980000089550
S1130160CF92DF92EF92FF920F931F93CF93DF937F
S11301707C0126E0E20EF11C6C01F70102917F0183
S1130180C7E0D0E010E098010C2E02C03595279509
S11301900A94E2F720FF02C0C39A01C0C398D6DFD5
S11301A0219788F7CE14DF0441F7DF91CF911F9197
S11301B00F91FF90EF90DF90CF900895CF93C82FC9
S11301C0C39AC4DFC13019F0C23029F007C084E6F5
S11301D090E0C6DF03C08AE690E0C2DFCF910895C5
S11301E0CF93C82FC398B2DFC13019F0C23029F0C1
S11301F007C084E690E0B4DF03C08AE690E0B0DF95
S1130200CF910895E4E6F0E0108211821282138205
S113021014821582EAE6F0E01082118212821382BF
S113022014821582089582E0DBDF81E0D9DF93DF59
S113023008950F931F93CF93DF93F89487B38E623F
S113024087BBC59888B38E6088BB81E090E010D8E6
S11302508F3F21F46DEB81E090E012D881E090E0D3
S113026007D882B986B7806886BF86B7816086BFA3
S113027086B7806486BF86B7846086BF82E080B913
S1130280089813B89FE088E10FB6F894A89581BD4B
S11302900FBE91BD78945FDF04E610E08FEFF801A4
S11302A08083818382831382148296E99583CAE6CC
S11302B0D0E0888389838A831B821C829D8381E0AA
S11302C07DDF82E07BDF47DFF80111821282138237
S11302D014821582168219821A821B821C821D8244
S11302E01E8281E07DDF82E07BDF35DFC298DF9113
S11302F0CF911F910F910895E0E7F0E010821182F1
S1130300128213821482158208951F920F920FB6DF
S11303100F9211248F939F93EF93FF9381B1887F62
S1130320803A21F1883A11F1803841F583B18A3A53
S113033041F480916000811108C081E080936000E5
S11303401DC0809160008823C9F093B1E82FF0E0CC
S1130350E159FF4F90838F5F80936000883071F480
S11303601092600081E08093630008C08091610076
S1130370882311F013B802C08FEF83B986B7806861
S113038086BFFF91EF919F918F910F900FBE0F90B9
S11303901F90189590E0FC013297E233F10508F0C4
S11303A075C0ED5EFF4F0994662349F0613009F092
S11303B06DC0E4E6F0E08581846085830895E4E619
S11303C0F0E085818B7F85830895662349F0613051
S11303D009F05CC0E4E6F0E08581886085830895D7
S11303E0E4E6F0E08581877F85830895662349F0FC
S11303F0613009F04BC0E4E6F0E0858180618583DB
S11304000895E4E6F0E085818F7E85830895662370
S113041041F06130D9F5E4E6F0E0858184618583BB
S11304200895E4E6F0E085818F7E85830895662350
S113043041F0613059F5E4E6F0E085818C60858314
S11304400895E4E6F0E085818B7F85830895662333
S113045041F06130D9F4E4E6F0E085818861858378
S11304600895E4E6F0E085818F7E85830895662310
S113047041F0613059F4E4E6F0E085818C618583D4
S11304800895E4E6F0E085818F7E858308958135C3
S113049008F08055813A50F490E0FC013197E03542
S11304A0F10508F052C5EB5BFF4F0994662319F080
S11304B0613039F00895EAE6F0E08481877F84832F
S11304C00895EAE6F0E084818860848308956623D1
S11304D019F0613039F00895EAE6F0E083818F770E
S11304E083830895EAE6F0E0838180688383089536
S11304F0662319F0613039F00895EAE6F0E083816B
S1130500877F83830895EAE6F0E0838188608383AC
S11305100895662319F0613039F00895EAE6F0E0B1
S113052082818F7782830895EAE6F0E08281806891
S113053082830895662319F0613039F00895EAE65C
S1130540F0E084818B7F84830895EAE6F0E084817F
S1130550846084830895662319F0613039F0089526
S1130560EAE6F0E083818F7B83830895EAE6F0E096
S11305708381806483830895662319F0613039F0A0
S11305800895EAE6F0E083818B7F83830895EAE6A9
S1130590F0E08381846083830895662319F06130D9
S11305A039F00895EAE6F0E082818F7B8283089532
S11305B0EAE6F0E08281806482830895662319F07C
S11305C0613039F00895EAE6F0E084818D7F848318
S11305D00895EAE6F0E084818260848308956623C6
S11305E019F0613039F00895EAE6F0E083818F7DF7
S11305F083830895EAE6F0E083818062838308952B
S1130600662319F0613039F00895EAE6F0E0838159
S11306108D7F83830895EAE6F0E08381826083839B
S11306200895662319F0613039F00895EAE6F0E0A0
S113063082818F7D82830895EAE6F0E08281806280
S113064082830895662319F0613039F00895EAE64B
S1130650F0E084818E7F84830895EAE6F0E084816B
S1130660816084830895662319F0613039F0089518
S1130670EAE6F0E083818F7E83830895EAE6F0E082
S11306808381806183830895662319F0613039F092
S11306900895EAE6F0E083818E7F83830895EAE695
S11306A0F0E08381816083830895662319F06130CB
S11306B039F00895EAE6F0E082818F7E828308951E
S11306C0EAE6F0E08281806182830895662319F06E
S11306D0613039F00895EAE6F0E082818D7F82830B
S11306E00895EAE6F0E082818260828308956623B9
S11306F019F0613039F00895EAE6F0E082818E7FE6
S113070082830895EAE6F0E082818160828308951D
S1130710662319F0613039F00895EAE6F0E081814A
S11307208F7781830895EAE6F0E081818068818390
S11307300895662319F0613039F00895EAE6F0E08F
S113074081818F7B81830895EAE6F0E08181806472
S113075081830895662319F0613039F00895EAE63B
S1130760F0E081818B7F81830895EAE6F0E0818166
S1130770846081830895662319F0613039F0089507
S1130780EAE6F0E08181877F81830895EAE6F0E07C
S11307908181886081830895662319F0613039F07E
S11307A00895EAE6F0E081818F7E81830895EAE688
S11307B0F0E08181806181830895662319F06130BE
S11307C039F00895EAE6F0E081818F7D8183089510
S11307D0EAE6F0E08181806281830895662319F05E
S11307E0613039F00895EAE6F0E08081877F808304
S11307F00895EAE6F0E080818860808308956623A6
S113080019F0613039F00895EAE6F0E080818B7FD9
S113081080830895EAE6F0E080818460808308950F
S1130820662319F0613039F00895EAE6F0E080813A
S11308308D7F80830895EAE6F0E080818260808382
S11308400895662319F0613039F00895EAE6F0E07E
S113085080818E7F80830895EAE6F0E08081816064
S113086080830895662319F0613039F00895EAE62B
S1130870F0E084818F7B84830895EAE6F0E084814C
S1130880806484830895662319F0613039F00895F3
S1130890EAE6F0E085818D7F85830895EAE6F0E05D
S11308A08581826085830895662319F0613039F06B
S11308B00895EAE6F0E085818F7E85830895EAE66F
S11308C0F0E08581806185830895662319F06130A5
S11308D039F00895EAE6F0E085818F7785830895FD
S11308E0EAE6F0E08581806885830895662319F03F
S11308F0613039F00895EAE6F0E084818F7D8483E5
S11309000895EAE6F0E08481806284830895662392
S113091019F0613039F00895EAE6F0E085818E7FC0
S113092085830895EAE6F0E08581816085830895F2
S1130930662319F0613039F00895EAE6F0E0858124
S1130940877F85830895EAE6F0E085818860858362
S11309500895662319F0613039F00895EAE6F0E06D
S113096085818F7B85830895EAE6F0E08581806444
S113097085830895662319F0613039F00895EAE615
S1130980F0E084818F7E84830895EAE6F0E0848138
S1130990806184830895662319F0613039F00895E5
S11309A0EAE6F0E084818F7784830895EAE6F0E054
S11309B08481806884830895662319F0613039F056
S11309C00895EAE6F0E085818B7F85830895EAE661
S11309D0F0E08581846085830895662319F0613091
S11309E039F00895EAE6F0E085818F7D85830895E6
S11309F0EAE6F0E08581806285830895662319F034
S1130A00613039F00895E4E6F0E082818F778283E3
S1130A100895E4E6F0E08281806882830895662385
S1130A2019F0613039F00895E4E6F0E08281877FBF
S1130A3082830895E4E6F0E08281886082830895E9
S1130A40662319F0613039F00895E4E6F0E081811D
S1130A508F7781830895E4E6F0E081818068818363
S1130A600895662319F0613039F00895E4E6F0E062
S1130A708181877F81830895E4E6F0E08181886045
S1130A8081830895662319F0613039F00895E4E60E
S1130A90F0E082818F7B82830895E4E6F0E0828136
S1130AA0806482830895662319F0613039F00895D3
S1130AB0E4E6F0E082818B7F82830895E4E6F0E04F
S1130AC08281846082830895662319F0613039F04D
S1130AD00895E4E6F0E081818F7B81830895E4E664
S1130AE0F0E08181806481830895662319F0613088
S1130AF039F00895E4E6F0E081818B7F81830895E5
S1130B00E4E6F0E08181846081830895662319F02E
S1130B10613039F00895E4E6F0E082818F7D8283CC
S1130B200895E4E6F0E0828180628283089566237A
S1130B3019F0613039F00895E4E6F0E082818D7FA8
S1130B4082830895E4E6F0E08281826082830895DE
S1130B50662319F0613039F00895E4E6F0E081810C
S1130B608F7D81830895E4E6F0E081818062818352
S1130B700895662319F0613039F00895E4E6F0E051
S1130B8081818D7F81830895E4E6F0E08181826034
S1130B9081830895662319F0613039F00895E4E6FD
S1130BA0F0E082818F7E82830895E4E6F0E0828122
S1130BB0806182830895662319F0613039F00895C5
S1130BC0E4E6F0E082818E7F82830895E4E6F0E03B
S1130BD08281816082830895662319F0613039F03F
S1130BE00895E4E6F0E081818F7E81830895E4E650
S1130BF0F0E08181806181830895662319F061307A
S1130C0039F00895E4E6F0E081818E7F81830895D0
S1130C10E4E6F0E08181816081830895662319F020
S1130C20613039F00895E4E6F0E08081877F8083C5
S1130C300895E4E6F0E08081886080830895662367
S1130C4019F0613039F00895E4E6F0E080818F7E98
S1130C5080830895E4E6F0E08081806180830895D4
S1130C60662319F0613039F00895E4E6F0E08081FC
S1130C708F7D80830895E4E6F0E080818062808344
S1130C800895662319F0613039F00895E4E6F0E040
S1130C9080818F7B80830895E4E6F0E08081806426
S1130CA080830895662319F0613039F00895E4E6ED
S1130CB0F0E085818F7785830895E4E6F0E085810F
S1130CC0806885830895662319F0613039F00895AA
S1130CD0E4E6F0E080818E7F80830895E4E6F0E02E
S1130CE08081816080830895662319F0613039F032
S1130CF00895E4E6F0E080818D7F80830895E4E642
S1130D00F0E08081826080830895662319F0613069
S1130D1039F00895E4E6F0E080818B7F80830895C4
S1130D20E4E6F0E08081846080830895662319F00E
S1130D30613039F00895E4E6F0E084818F778483AC
S1130D400895E4E6F0E0848180688483089566234E
S1130D5019F0613039F00895E4E6F0E084818F7B86
S1130D6084830895E4E6F0E08481806484830895B4
S1130D70662319F0613039F00895E4E6F0E08481E7
S1130D808F7D84830895E4E6F0E084818062848327
S1130D900895662319F0613039F00895E4E6F0E02F
S1130DA084818F7E84830895E4E6F0E08481806109
S1130DB084830895662319F0613039F00895E4E6D8
S1130DC0F0E083818B7F83830895E4E6F0E0838100
S1130DD0846083830895662319F0613039F008959F
S1130DE0E4E6F0E083818F7D83830895E4E6F0E018
S1130DF08381806283830895662319F0613039F01A
S1130E000895E4E6F0E084818E7F84830895E4E627
S1130E10F0E08481816084830895662319F0613051
S1130E2039F00895E4E6F0E08481877F84830895AF
S1130E30E4E6F0E08481886084830895662319F0F1
S1130E40613039F00895E4E6F0E083818D7F838397
S1130E500895E4E6F0E08381826083830895662345
S1130E6019F0613039F00895E4E6F0E083818F7E73
S1130E7083830895E4E6F0E08381806183830895A9
S1130E80662319F0613039F00895E4E6F0E08381D7
S1130E908F7783830895E4E6F0E083818068838319
S1130EA00895662319F0613039F00895E4E6F0E01E
S1130EB084818B7F84830895E4E6F0E084818460F8
S1130EC084830895662319F0613039F00895E4E6C7
S1130ED0F0E083818E7F83830895E4E6F0E08381EC
S1130EE0816083830895662319F0613039F0089591
S1130EF0E4E6F0E08381877F83830895E4E6F0E00D
S1130F008381886083830895662319F0613039F002
S1130F100895E4E6F0E083818F7B83830895E4E61B
S1130F20F0E08381806483830895662319F061303F
S1130F3039F00895E4E6F0E084818D7F8483089598
S1130F40E4E6F0E084818260848308950F931F9324
S1130F50CF93DF93D82F062F10E061E08D2F1ADA9C
S1130F60C1E061E08C2F93DACB5FC135D1F75BD957
S1130F702FE788E391E0215080409040E1F700C0E2
S1130F800000A8953FD961E08D2F04DAC5E061E047
S1130F908C2F7DDACB5FC535D1F745D92FE788E3B0
S1130FA091E0215080409040E1F700C00000A895F6
S1130FB029D961E08D2FEED9C9E061E08C2F67DA81
S1130FC0CB5FCC37D1F72FD92FE788E391E02150BD
S1130FD080409040E1F700C00000A89513D961E07B
S1130FE08D2FD8D9CDE061E08C2F51DACB5FCB3790
S1130FF0D1F719D92FE788E391E021508040904040
S1131000E1F700C00000A895FDD861E08D2FC2D99A
S1131010C1E161E08C2F3BDACB5FCA37D1F72FE710
S113102088E391E0215080409040E1F700C0000047
S1131030A895F9D8E7D861E08D2FACD9C5E161E076
S11310408C2F25DACB5FC937D1F7EDD82FE788E3AA
S113105091E0215080409040E1F700C00000A89545
S1131060D1D81F5F011708F078CFDF91CF911F917E
S11310700F910895E82FF0E0E059FF4F90819923F4
S1131080B9F0863059F4892FA895EFE1FEE4319741
S1131090F1F700C000008150B9F70895892FA89591
S11310A0EFECF7E03197F1F700C000008150B9F799
S11310B00895CF9361E06ED9C1E061E08C2FE7D948
S11310C0B2D885E0D7DFCC5FC135B9F7C2E061E0C3
S11310D08C2FDDD9A8D885E0CDDFCC5FC235B9F738
S11310E0C3E061E08C2FD3D99ED885E0C3DFCC5F09
S11310F0C335B9F7C4E061E08C2FC9D994D885E031
S1131100B9DFCC5FC435B9F7CF91089592D87AD8B6
S11311108AD801E0C0E7D0E080916300882309F415
S1131120A5C0109263001092610088818C3F29F160
S113113038F48A3F09F485C0C0F58A3039F0ECCF21
S11311408E3F09F469C008F44DC011C0F89486B705
S11311508B7F86BF698162B986B7846086BF81E070
S113116090E08ED0789400936100C6D8D5CF4AD849
S11311705AD800936100C0D8CFCF602F89810AD993
S11311801A818B81811758F0602F812F80D94BD819
S113119085E070DF8C81180F8B818117A8F786E0BA
S11311A069DF00936100A8D8B7CF602F8981F2D896
S11311B01A818B81181780F0123570F402C0123531
S11311C058F4602F812F63D92ED885E053DF8C81AA
S11311D0181B8B81181798F786E04CDF0093610089
S11311E08BD89ACF1A818B81181780F0123570F43E
S11311F002C0123558F460E0812F49D914D885E033
S113120039DF8C81181B8B81181798F786E032DF41
S11312100093610071D880CF1A818B81811758F0B7
S113122060E0812F34D9FFD785E024DF8C81180F4B
S11312308B818117A8F786E01DDF009361005CD8DD
S11312406BCF8A81813019F0823049F065CF898172
S113125030DF86E00FDF009361004ED85DCF6C81F4
S1131260898174DE0093610047D856CFA89554CF86
S1131270E199FECF9FBB8EBBE09A99278DB3089569
S1131280262FE199FECF9FBB8EBB2DBB0FB6F894E2
S1111290E29AE19A0FBE01960895F894FFCFFA
S9030000FC
