:020000020000FC
:100000001AC018C017C016C015C014C013C012C043
:1000100011C010C00FC00EC00DC00CC00BC00AC074
:1000200009C008C007C006C005C004C003C002C0A4
:1000300001C000C01895F89444E05FE54EBF5DBF75
:100040005CD0C29A96D01FEF112E1FEF212E1FEF0A
:10005000312E10E0412E10E0512E16E9612E59D0BC
:100060006ED062D06CD085D0112422243324442455
:10007000552466244ED066D057D064D07AD0C2982A
:100080001FEF112E212E312E412E512E612E5AD0CE
:1000900039D01FEF112E212E312E412E512E1BEE65
:1000A000612E50D066D084D01FEF112E212E312E1C
:1000B000412E512E612E46D025D01FEF112E212E1C
:1000C000312E412E512E17EE612E3CD052D070D0E1
:1000D0001FEF112E212E312E412E512E612E32D0A6
:1000E00011D01FEF112E212E312E412E512E13EF44
:1000F000612E28D03ED05CD0C3CF1EE217BB1AE0E1
:1001000018BB089511242224332444245524662442
:1001100008954F915F911F922F923F924F925F925D
:100120006F925F934F9308955F914F916F905F909F
:100130004F903F902F901F904F935F930895C39AD5
:1001400013D003C0C39810D000C060E3110C221C70
:10015000331C441C551C661C10F0C39801C0C39A84
:1001600003D06A9599F708950AD0C59A08D0C59822
:10017000089505D0C19A03D0C19801D008956F9316
:100180006FE06A95F1F76F9108951F934F935F9316
:100190001CE74DEF5EEF5A95F1F74A95D9F71A959E
:1001A000C1F71AE01A95F1F75F914F911F910895E9
:1001B00029E236E940E84A95F1F73A95E1F72A95C0
:1001C000D1F7089528E033E248E452EB5A95F1F76D
:1001D0004A95E1F73A95D1F72A95C1F700000895BD
:1001E0001FEF112E212E312E412E512E612E0895FA
:1001F000A9DF18E0612EA6DFBCDF0895A3DF14E0BD
:10020000612EA0DFB6DF08959DDF10E1612E9ADF39
:04021000B0DF0895BE
:00000001FF
